{
  "address": "0xD0dA6af343B12225AF803CF157DEF8366ae01d32",
  "abi": [
    {
      "inputs": [],
      "stateMutability": "nonpayable",
      "type": "constructor"
    },
    {
      "inputs": [],
      "name": "LINK",
      "outputs": [
        {
          "internalType": "address",
          "name": "",
          "type": "address"
        }
      ],
      "stateMutability": "view",
      "type": "function"
    },
    {
      "inputs": [],
      "name": "WETH",
      "outputs": [
        {
          "internalType": "address",
          "name": "",
          "type": "address"
        }
      ],
      "stateMutability": "view",
      "type": "function"
    },
    {
      "inputs": [],
      "name": "linkToken",
      "outputs": [
        {
          "internalType": "contract IERC20",
          "name": "",
          "type": "address"
        }
      ],
      "stateMutability": "view",
      "type": "function"
    },
    {
      "inputs": [],
      "name": "poolFee",
      "outputs": [
        {
          "internalType": "uint24",
          "name": "",
          "type": "uint24"
        }
      ],
      "stateMutability": "view",
      "type": "function"
    },
    {
      "inputs": [],
      "name": "routerAddress",
      "outputs": [
        {
          "internalType": "address",
          "name": "",
          "type": "address"
        }
      ],
      "stateMutability": "view",
      "type": "function"
    },
    {
      "inputs": [
        {
          "internalType": "uint256",
          "name": "amountIn",
          "type": "uint256"
        }
      ],
      "name": "swapExactInputSingle",
      "outputs": [
        {
          "internalType": "uint256",
          "name": "amountOut",
          "type": "uint256"
        }
      ],
      "stateMutability": "nonpayable",
      "type": "function"
    },
    {
      "inputs": [
        {
          "internalType": "uint256",
          "name": "amountOut",
          "type": "uint256"
        },
        {
          "internalType": "uint256",
          "name": "amountInMaximum",
          "type": "uint256"
        }
      ],
      "name": "swapExactOutputSingle",
      "outputs": [
        {
          "internalType": "uint256",
          "name": "amountIn",
          "type": "uint256"
        }
      ],
      "stateMutability": "nonpayable",
      "type": "function"
    },
    {
      "inputs": [],
      "name": "swapRouter",
      "outputs": [
        {
          "internalType": "contract ISwapRouter",
          "name": "",
          "type": "address"
        }
      ],
      "stateMutability": "view",
      "type": "function"
    }
  ],
  "transactionHash": "0xa74675f47f95dc6b5343d140bf9f3775fd034e65250fa6099daecda3123b04c2",
  "args": [],
  "numDeployments": 1,
  "solcInputHash": "be2ed6e535d6945c516dbaa44fb78569",
  "bytecode": "0x60a060405273e592427a0aece92de3edee1f18e0157c0586156473ffffffffffffffffffffffffffffffffffffffff1660809073ffffffffffffffffffffffffffffffffffffffff1660601b81525073326c977e6efc84e512bb9c30f76e30c160ed06fb6000806101000a81548173ffffffffffffffffffffffffffffffffffffffff021916908373ffffffffffffffffffffffffffffffffffffffff1602179055503480156100ae57600080fd5b5060805160601c610db76100f06000396000818161023c0152818161039501528181610460015281816104c30152818161061b015261070c0152610db76000f3fe608060405234801561001057600080fd5b50600436106100885760003560e01c806373bd43ad1161005b57806373bd43ad14610105578063ad5c464814610135578063c31c9c0714610153578063c4b69a181461017157610088565b8063089fe6aa1461008d5780631b6b6d23146100ab5780633268cc56146100c957806357970e93146100e7575b600080fd5b6100956101a1565b6040516100a29190610c09565b60405180910390f35b6100b36101a7565b6040516100c09190610b2e565b60405180910390f35b6100d16101bf565b6040516100de9190610b2e565b60405180910390f35b6100ef6101d7565b6040516100fc9190610b9b565b60405180910390f35b61011f600480360381019061011a91906108c6565b6101fb565b60405161012c9190610c24565b60405180910390f35b61013d610446565b60405161014a9190610b2e565b60405180910390f35b61015b61045e565b6040516101689190610bb6565b60405180910390f35b61018b60048036038101906101869190610918565b610482565b6040516101989190610c24565b60405180910390f35b610bb881565b73326c977e6efc84e512bb9c30f76e30c160ed06fb81565b73e592427a0aece92de3edee1f18e0157c0586156481565b60008054906101000a900473ffffffffffffffffffffffffffffffffffffffff1681565b60008060009054906101000a900473ffffffffffffffffffffffffffffffffffffffff1673ffffffffffffffffffffffffffffffffffffffff1663095ea7b37f0000000000000000000000000000000000000000000000000000000000000000846040518363ffffffff1660e01b8152600401610279929190610b72565b602060405180830381600087803b15801561029357600080fd5b505af11580156102a7573d6000803e3d6000fd5b505050506040513d601f19601f820116820180604052508101906102cb919061089d565b50600060405180610100016040528073326c977e6efc84e512bb9c30f76e30c160ed06fb73ffffffffffffffffffffffffffffffffffffffff16815260200173b4fbf271143f4fbf7b91a5ded31805e42b2208d673ffffffffffffffffffffffffffffffffffffffff168152602001610bb862ffffff1681526020013073ffffffffffffffffffffffffffffffffffffffff16815260200142815260200184815260200160008152602001600073ffffffffffffffffffffffffffffffffffffffff1681525090507f000000000000000000000000000000000000000000000000000000000000000073ffffffffffffffffffffffffffffffffffffffff1663414bf389826040518263ffffffff1660e01b81526004016103ec9190610bd1565b602060405180830381600087803b15801561040657600080fd5b505af115801561041a573d6000803e3d6000fd5b505050506040513d601f19601f8201168201806040525081019061043e91906108ef565b915050919050565b73b4fbf271143f4fbf7b91a5ded31805e42b2208d681565b7f000000000000000000000000000000000000000000000000000000000000000081565b60008060009054906101000a900473ffffffffffffffffffffffffffffffffffffffff1673ffffffffffffffffffffffffffffffffffffffff1663095ea7b37f0000000000000000000000000000000000000000000000000000000000000000846040518363ffffffff1660e01b8152600401610500929190610b72565b602060405180830381600087803b15801561051a57600080fd5b505af115801561052e573d6000803e3d6000fd5b505050506040513d601f19601f82011682018060405250810190610552919061089d565b50600060405180610100016040528073326c977e6efc84e512bb9c30f76e30c160ed06fb73ffffffffffffffffffffffffffffffffffffffff16815260200173b4fbf271143f4fbf7b91a5ded31805e42b2208d673ffffffffffffffffffffffffffffffffffffffff168152602001610bb862ffffff1681526020013073ffffffffffffffffffffffffffffffffffffffff168152602001428152602001858152602001848152602001600073ffffffffffffffffffffffffffffffffffffffff1681525090507f000000000000000000000000000000000000000000000000000000000000000073ffffffffffffffffffffffffffffffffffffffff1663db3e2198826040518263ffffffff1660e01b81526004016106729190610bed565b602060405180830381600087803b15801561068c57600080fd5b505af11580156106a0573d6000803e3d6000fd5b505050506040513d601f19601f820116820180604052508101906106c491906108ef565b9150828210156108575760008054906101000a900473ffffffffffffffffffffffffffffffffffffffff1673ffffffffffffffffffffffffffffffffffffffff1663095ea7b37f000000000000000000000000000000000000000000000000000000000000000060006040518363ffffffff1660e01b815260040161074a929190610b49565b602060405180830381600087803b15801561076457600080fd5b505af1158015610778573d6000803e3d6000fd5b505050506040513d601f19601f8201168201806040525081019061079c919061089d565b5060008054906101000a900473ffffffffffffffffffffffffffffffffffffffff1673ffffffffffffffffffffffffffffffffffffffff1663a9059cbb3084866107e69190610c3f565b6040518363ffffffff1660e01b8152600401610803929190610b72565b602060405180830381600087803b15801561081d57600080fd5b505af1158015610831573d6000803e3d6000fd5b505050506040513d601f19601f82011682018060405250810190610855919061089d565b505b5092915050565b60008151905061086d81610d53565b92915050565b60008135905061088281610d6a565b92915050565b60008151905061089781610d6a565b92915050565b6000602082840312156108af57600080fd5b60006108bd8482850161085e565b91505092915050565b6000602082840312156108d857600080fd5b60006108e684828501610873565b91505092915050565b60006020828403121561090157600080fd5b600061090f84828501610888565b91505092915050565b6000806040838503121561092b57600080fd5b600061093985828601610873565b925050602061094a85828601610873565b9150509250929050565b61095d81610c73565b82525050565b61096c81610c73565b82525050565b61097b81610cca565b82525050565b61098a81610cee565b82525050565b61099981610d12565b82525050565b610100820160008201516109b66000850182610954565b5060208201516109c96020850182610954565b5060408201516109dc6040850182610af2565b5060608201516109ef6060850182610954565b506080820151610a026080850182610b10565b5060a0820151610a1560a0850182610b10565b5060c0820151610a2860c0850182610b10565b5060e0820151610a3b60e0850182610ae3565b50505050565b61010082016000820151610a586000850182610954565b506020820151610a6b6020850182610954565b506040820151610a7e6040850182610af2565b506060820151610a916060850182610954565b506080820151610aa46080850182610b10565b5060a0820151610ab760a0850182610b10565b5060c0820151610aca60c0850182610b10565b5060e0820151610add60e0850182610ae3565b50505050565b610aec81610c91565b82525050565b610afb81610cb1565b82525050565b610b0a81610cb1565b82525050565b610b1981610cc0565b82525050565b610b2881610cc0565b82525050565b6000602082019050610b436000830184610963565b92915050565b6000604082019050610b5e6000830185610963565b610b6b6020830184610990565b9392505050565b6000604082019050610b876000830185610963565b610b946020830184610b1f565b9392505050565b6000602082019050610bb06000830184610972565b92915050565b6000602082019050610bcb6000830184610981565b92915050565b600061010082019050610be7600083018461099f565b92915050565b600061010082019050610c036000830184610a41565b92915050565b6000602082019050610c1e6000830184610b01565b92915050565b6000602082019050610c396000830184610b1f565b92915050565b6000610c4a82610cc0565b9150610c5583610cc0565b925082821015610c6857610c67610d24565b5b828203905092915050565b6000610c7e82610c91565b9050919050565b60008115159050919050565b600073ffffffffffffffffffffffffffffffffffffffff82169050919050565b600062ffffff82169050919050565b6000819050919050565b6000610cd582610cdc565b9050919050565b6000610ce782610c91565b9050919050565b6000610cf982610d00565b9050919050565b6000610d0b82610c91565b9050919050565b6000610d1d82610cc0565b9050919050565b7f4e487b7100000000000000000000000000000000000000000000000000000000600052601160045260246000fd5b610d5c81610c85565b8114610d6757600080fd5b50565b610d7381610cc0565b8114610d7e57600080fd5b5056fea26469706673582212208c691b080e998aabfd20bbb379a40b1208f0e0c4bff33634973be00a4421454c64736f6c63430008000033",
  "devdoc": {
    "kind": "dev",
    "methods": {},
    "version": 1
  },
  "userdoc": {
    "kind": "user",
    "methods": {},
    "version": 1
  },
  "storageLayout": {
    "storage": [
      {
        "astId": 164,
        "contract": "contracts/AlphaVaultSwap.sol:AlphaVaultSwap",
        "label": "linkToken",
        "offset": 0,
        "slot": "0",
        "type": "t_contract(IERC20)143"
      }
    ],
    "types": {
      "t_contract(IERC20)143": {
        "encoding": "inplace",
        "label": "contract IERC20",
        "numberOfBytes": "20"
      }
    }
  }
}